{
  "contractName": "MedicalRecords",
  "abi": [
    {
      "inputs": [],
      "stateMutability": "nonpayable",
      "type": "constructor"
    },
    {
      "anonymous": false,
      "inputs": [
        {
          "indexed": false,
          "internalType": "string",
          "name": "message",
          "type": "string"
        }
      ],
      "name": "ContractDeployed",
      "type": "event"
    },
    {
      "anonymous": false,
      "inputs": [
        {
          "indexed": false,
          "internalType": "uint256",
          "name": "id",
          "type": "uint256"
        },
        {
          "indexed": false,
          "internalType": "string",
          "name": "patientName",
          "type": "string"
        },
        {
          "indexed": false,
          "internalType": "string",
          "name": "medicalData",
          "type": "string"
        },
        {
          "indexed": false,
          "internalType": "address",
          "name": "doctor",
          "type": "address"
        },
        {
          "indexed": false,
          "internalType": "uint256",
          "name": "timestamp",
          "type": "uint256"
        }
      ],
      "name": "RecordAdded",
      "type": "event"
    },
    {
      "inputs": [],
      "name": "recordCount",
      "outputs": [
        {
          "internalType": "uint256",
          "name": "",
          "type": "uint256"
        }
      ],
      "stateMutability": "view",
      "type": "function",
      "constant": true
    },
    {
      "inputs": [
        {
          "internalType": "uint256",
          "name": "",
          "type": "uint256"
        }
      ],
      "name": "records",
      "outputs": [
        {
          "internalType": "uint256",
          "name": "id",
          "type": "uint256"
        },
        {
          "internalType": "string",
          "name": "patientName",
          "type": "string"
        },
        {
          "internalType": "string",
          "name": "medicalData",
          "type": "string"
        },
        {
          "internalType": "address",
          "name": "doctor",
          "type": "address"
        },
        {
          "internalType": "uint256",
          "name": "timestamp",
          "type": "uint256"
        }
      ],
      "stateMutability": "view",
      "type": "function",
      "constant": true
    },
    {
      "inputs": [
        {
          "internalType": "string",
          "name": "_patientName",
          "type": "string"
        },
        {
          "internalType": "string",
          "name": "_medicalData",
          "type": "string"
        }
      ],
      "name": "addRecord",
      "outputs": [],
      "stateMutability": "nonpayable",
      "type": "function"
    },
    {
      "inputs": [
        {
          "internalType": "uint256",
          "name": "_id",
          "type": "uint256"
        }
      ],
      "name": "getRecord",
      "outputs": [
        {
          "internalType": "uint256",
          "name": "",
          "type": "uint256"
        },
        {
          "internalType": "string",
          "name": "",
          "type": "string"
        },
        {
          "internalType": "string",
          "name": "",
          "type": "string"
        },
        {
          "internalType": "address",
          "name": "",
          "type": "address"
        },
        {
          "internalType": "uint256",
          "name": "",
          "type": "uint256"
        }
      ],
      "stateMutability": "view",
      "type": "function",
      "constant": true
    }
  ],
  "bytecode": "0x60806040526000805534801561001457600080fd5b507f0d0ebe685f2c334e83847eb5e89a8d3d8919558c63ef37cf7fc3e7b86dd88b6d604051610042906100b5565b60405180910390a16100e6565b600061005c602d836100d5565b91507f4d65646963616c5265636f72647320636f6e7472616374206465706c6f79656460008301527f207375636365737366756c6c79000000000000000000000000000000000000006020830152604082019050919050565b600060208201905081810360008301526100ce8161004f565b9050919050565b600082825260208201905092915050565b610a74806100f56000396000f3fe608060405234801561001057600080fd5b506004361061004c5760003560e01c806303e9e609146100515780633446106714610085578063900407bc146100b9578063c9596248146100d7575b600080fd5b61006b60048036038101906100669190610717565b6100f3565b60405161007c9594939291906107b2565b60405180910390f35b61009f600480360381019061009a9190610717565b6102d8565b6040516100b09594939291906107b2565b60405180910390f35b6100c161043e565b6040516100ce9190610797565b60405180910390f35b6100f160048036038101906100ec91906106ab565b610444565b005b60006060806000806000600160008881526020019081526020016000206040518060a0016040529081600082015481526020016001820180546101359061090e565b80601f01602080910402602001604051908101604052809291908181526020018280546101619061090e565b80156101ae5780601f10610183576101008083540402835291602001916101ae565b820191906000526020600020905b81548152906001019060200180831161019157829003601f168201915b505050505081526020016002820180546101c79061090e565b80601f01602080910402602001604051908101604052809291908181526020018280546101f39061090e565b80156102405780601f1061021557610100808354040283529160200191610240565b820191906000526020600020905b81548152906001019060200180831161022357829003601f168201915b505050505081526020016003820160009054906101000a900473ffffffffffffffffffffffffffffffffffffffff1673ffffffffffffffffffffffffffffffffffffffff1673ffffffffffffffffffffffffffffffffffffffff168152602001600482015481525050905080600001518160200151826040015183606001518460800151955095509550955095505091939590929450565b60016020528060005260406000206000915090508060000154908060010180546103019061090e565b80601f016020809104026020016040519081016040528092919081815260200182805461032d9061090e565b801561037a5780601f1061034f5761010080835404028352916020019161037a565b820191906000526020600020905b81548152906001019060200180831161035d57829003601f168201915b50505050509080600201805461038f9061090e565b80601f01602080910402602001604051908101604052809291908181526020018280546103bb9061090e565b80156104085780601f106103dd57610100808354040283529160200191610408565b820191906000526020600020905b8154815290600101906020018083116103eb57829003601f168201915b5050505050908060030160009054906101000a900473ffffffffffffffffffffffffffffffffffffffff16908060040154905085565b60005481565b60008081548092919061045690610940565b91905055506040518060a0016040528060005481526020018381526020018281526020013373ffffffffffffffffffffffffffffffffffffffff1681526020014281525060016000805481526020019081526020016000206000820151816000015560208201518160010190805190602001906104d492919061058b565b5060408201518160020190805190602001906104f192919061058b565b5060608201518160030160006101000a81548173ffffffffffffffffffffffffffffffffffffffff021916908373ffffffffffffffffffffffffffffffffffffffff160217905550608082015181600401559050507ff755fae179d056de2b417fd1fbe466ef179902cda18bbfaf44f5c35767017b766000548383334260405161057f9594939291906107b2565b60405180910390a15050565b8280546105979061090e565b90600052602060002090601f0160209004810192826105b95760008555610600565b82601f106105d257805160ff1916838001178555610600565b82800160010185558215610600579182015b828111156105ff5782518255916020019190600101906105e4565b5b50905061060d9190610611565b5090565b5b8082111561062a576000816000905550600101610612565b5090565b600061064161063c84610844565b610813565b90508281526020810184848401111561065957600080fd5b6106648482856108cc565b509392505050565b600082601f83011261067d57600080fd5b813561068d84826020860161062e565b91505092915050565b6000813590506106a581610a27565b92915050565b600080604083850312156106be57600080fd5b600083013567ffffffffffffffff8111156106d857600080fd5b6106e48582860161066c565b925050602083013567ffffffffffffffff81111561070157600080fd5b61070d8582860161066c565b9150509250929050565b60006020828403121561072957600080fd5b600061073784828501610696565b91505092915050565b61074981610890565b82525050565b600061075a82610874565b610764818561087f565b93506107748185602086016108db565b61077d81610a16565b840191505092915050565b610791816108c2565b82525050565b60006020820190506107ac6000830184610788565b92915050565b600060a0820190506107c76000830188610788565b81810360208301526107d9818761074f565b905081810360408301526107ed818661074f565b90506107fc6060830185610740565b6108096080830184610788565b9695505050505050565b6000604051905081810181811067ffffffffffffffff8211171561083a576108396109e7565b5b8060405250919050565b600067ffffffffffffffff82111561085f5761085e6109e7565b5b601f19601f8301169050602081019050919050565b600081519050919050565b600082825260208201905092915050565b600061089b826108a2565b9050919050565b600073ffffffffffffffffffffffffffffffffffffffff82169050919050565b6000819050919050565b82818337600083830152505050565b60005b838110156108f95780820151818401526020810190506108de565b83811115610908576000848401525b50505050565b6000600282049050600182168061092657607f821691505b6020821081141561093a576109396109b8565b5b50919050565b600061094b826108c2565b91507fffffffffffffffffffffffffffffffffffffffffffffffffffffffffffffffff82141561097e5761097d610989565b5b600182019050919050565b7f4e487b7100000000000000000000000000000000000000000000000000000000600052601160045260246000fd5b7f4e487b7100000000000000000000000000000000000000000000000000000000600052602260045260246000fd5b7f4e487b7100000000000000000000000000000000000000000000000000000000600052604160045260246000fd5b6000601f19601f8301169050919050565b610a30816108c2565b8114610a3b57600080fd5b5056fea2646970667358221220059fa3d10fc109ded4fa292251fb6df8bedb338e29a191a31691d0ebc22ce21464736f6c63430008000033",
  "immutableReferences": {},
  "source": "// SPDX-License-Identifier: MIT\r\npragma solidity ^0.8.0;\r\n\r\ncontract MedicalRecords {\r\n    struct Record {\r\n        uint id;\r\n        string patientName;\r\n        string medicalData;\r\n        address doctor;\r\n        uint timestamp;\r\n    }\r\n\r\n    uint public recordCount = 0;\r\n    mapping(uint => Record) public records;\r\n\r\n    // Event to notify when a record is added\r\n    event RecordAdded(\r\n        uint id,\r\n        string patientName,\r\n        string medicalData,\r\n        address doctor,\r\n        uint timestamp\r\n    );\r\n\r\n    event ContractDeployed(string message);\r\n\r\n    // Constructor for debugging\r\n    constructor() {\r\n        emit ContractDeployed(\"MedicalRecords contract deployed successfully\");\r\n    }\r\n\r\n    // Function to add a new medical record\r\n    function addRecord(string memory _patientName, string memory _medicalData) public {\r\n        recordCount++;\r\n        records[recordCount] = Record(recordCount, _patientName, _medicalData, msg.sender, block.timestamp);\r\n        emit RecordAdded(recordCount, _patientName, _medicalData, msg.sender, block.timestamp);\r\n    }\r\n\r\n    // Function to retrieve a medical record by id\r\n    function getRecord(uint _id) public view returns (uint, string memory, string memory, address, uint) {\r\n        Record memory record = records[_id];\r\n        return (record.id, record.patientName, record.medicalData, record.doctor, record.timestamp);\r\n    }\r\n}\r\n",
  "sourcePath": "D:\\bct mini project\\contracts\\MedicalRecords.sol",
  "compiler": {
    "name": "solc",
    "version": "0.8.0+commit.c7dfd78e.Emscripten.clang"
  },
  "schemaVersion": "3.4.16",
  "updatedAt": "2024-10-22T08:58:18.659Z",
  "networkType": "ethereum",
  "devdoc": {
    "kind": "dev",
    "methods": {},
    "version": 1
  },
  "userdoc": {
    "kind": "user",
    "methods": {},
    "version": 1
  }
}